:1000000000000320A90F0000091300000D130000D9
:100010001113000015130000191300000000000068
:100020000000000000000000000000001D130000A0
:10003000211300000000000025130000110400003F
:10004000AD080000B1080000B5080000B9080000C4
:10005000BD080000C1080000C5080000C908000074
:10006000CD080000D1080000D5080000D908000024
:10007000DD080000E1080000E5080000E9080000D4
:10008000ED080000F1080000F5080000F908000084
:10009000FD080000BD04000005090000090900007A
:1000A0000D090000110900001509000019090000E0
:1000B0001D09000021090000250900002909000090
:1000C0002D09000031090000350900003909000040
:1000D0003D090000410900004509000049090000F0
:1000E0004D090000510900005509000059090000A0
:1000F0005D09000061090000650900006909000050
:100100006D090000710900007509000079090000FF
:100110007D090000810900008509000089090000AF
:100120008D0900009109000095090000990900005F
:100130009D090000A1090000A5090000A90900000F
:10014000AD090000B1090000B5090000B9090000BF
:10015000BD090000C1090000C5090000C90900006F
:10016000CD090000D1090000D50900003D050000BF
:10017000DD090000E1090000E5090000E9090000CF
:10018000ED090000F1090000F5090000F90900007F
:10019000FD090000010A0000050A0000090A00002C
:1001A0000D0A0000110A0000150A0000190A0000DB
:1001B0001D0A0000210A0000250A0000290A00008B
:1001C0002D0A0000310A0000350A0000390A00003B
:10040000FFFFFFFFFFFFFFFFFFFFFFFFFFFFFFFFFC
:10041000024A136801331360704700BF3404FF1FA2
:1004200004494B68034AC3F30723002BF9D0D06873
:10043000704700BF00000A4019491A4A1A4B1B486E
:10044000F0B41B4E1B4D1C4C4FF400170F60B168ED
:1004500041F02001B160916841F480319160916870
:1004600041F4003191602968FF2221F001012960E7
:100470005A729A72DA729A7B42F080029A73DA7B2D
:1004800042F08002DA73236923F0060343F0040389
:10049000032223614270437830BFF0BC704700BF35
:1004A00000E100E040F00F4000C0074000E00740DE
:1004B00080F00F4010E000E000ED00E008B51A4BBE
:1004C0001A49FF225A729A72DA729A7B42F08002BB
:1004D0009A73DA7B4FF4001042F08002DA73C1F8AD
:1004E0008000BFF34F8FBFF36F8F03F503234033BB
:1004F0005A680F4942F480325A605A6842F4003216
:100500005A604B6843F020034B6000F0FFFA094942
:10051000094A0B6843F001030B60136923F00603DB
:100520001361BFF34F8F08BD00C0074000E100E03A
:1005300080F00F4010E000E000ED00E0F0B50E4E5E
:100540000E4F356B85B0002402E00134102C11D021
:1005500025FA04F3DB07E1B2F7D53B687B60684618
:1005600000F09AF8326B0123A34001341343102C9E
:100570003363EDD105B0F0BD004002403404FF1FED
:100580003E4B3F4A3F484049F0B441F23C043F4DA6
:100590004FF4007740F203261F635E632B5943F04C
:1005A00010032B51136843F000431360037843F0AA
:1005B000800303705368002423F400534FF4006059
:1005C000536081F84B438860136823F00043136045
:1005D000136843F00073136013689C01FCD428492E
:1005E0000B68274AD801FBD51368294943F4003327
:1005F0001360136843F480331360136843F00F03F0
:1006000013605160536823F00803536051684FF63C
:10061000FF7021F480510023516014469062184607
:100620001A0103F5087102F1402202F5003244F884
:100630002100C2F88000C2F88400D2F88010013393
:1006400041F08461082BC2F88010E9D14FF00064BA
:10065000104A0B49180102440133102B1460F7D1E2
:100660000B6823F080530B600B461A68D201FCD450
:10067000034A13681B01FCD4F0BC7047009004408F
:10068000004002400050064000E100E000700440DD
:100690000700171780400240F0B40C0104F1402419
:1006A00004F50034D4F88030C3F3036323F004036B
:1006B000022B02D00846F0BC7047D4F8803023F0FB
:1006C0007063C4F88030D4F88030C4F88030D4F837
:1006D0008050C5F30345EBB28371D4F8802012F447
:1006E000001FD4F884201ABF22F0604242F000427A
:1006F000C2F38A4202608288022A20D00A0102F1F3
:10070000402202F5003202F18807D2F88860360EE6
:10071000C671D2F88860360C0672D2F88860360A44
:100720004672D2F888208272032D14D8072D06D87D
:100730000025C2180133DBB2082BD571F9D1002393
:10074000C4F88430D4F8803043F08463C4F8803037
:100750000846F0BC70477A68120EC2727A68120CB2
:1007600002737A68120A42737A688273DEE700BF06
:1007700010B485B004AC04E90F00009C9DF806009D
:100780000823494A19010A441268C2F30362082A7D
:1007900006D00133102BF4D105B05DF8044B70473F
:1007A00001F1402202F500320B46002C4FF00061AF
:1007B000C2F8801063DBD2F8841021F0FF5121F4DD
:1007C000E011C2F88410D2F8841041EA8444C2F8DF
:1007D0008440D2F8801021F40011C2F880109DF8F6
:1007E000071003F1402303F500330906C3F888100E
:1007F000D3F888109DF8084041EA0441C3F88810F6
:10080000D3F888109DF8094041EA0421C3F8881004
:10081000D3F888109DF80A40032841EA0401C3F880
:10082000881003F1880314D99DF80B10090659604C
:1008300059689DF80C4041EA0441596059689DF897
:100840000D4041EA0421596059689DF80E4021434A
:100850005960D2F8801021F47021C2F88010D2F8CB
:10086000803043EA0043C2F88030D2F8803043F051
:100870004063C2F8803005B05DF8044B7047D2F891
:10088000841001F06041C2F88410D2F8841024F082
:1008900000440C43C2F88440D2F8801041F40011A7
:1008A000C2F880109BE700BF80400240704700BF45
:1008B000704700BF704700BF704700BF704700BF60
:1008C000704700BF704700BF704700BF704700BF50
:1008D000704700BF704700BF704700BF704700BF40
:1008E000704700BF704700BF704700BF704700BF30
:1008F000704700BF704700BF704700BF704700BF20
:10090000704700BF704700BF704700BF704700BF0F
:10091000704700BF704700BF704700BF704700BFFF
:10092000704700BF704700BF704700BF704700BFEF
:10093000704700BF704700BF704700BF704700BFDF
:10094000704700BF704700BF704700BF704700BFCF
:10095000704700BF704700BF704700BF704700BFBF
:10096000704700BF704700BF704700BF704700BFAF
:10097000704700BF704700BF704700BF704700BF9F
:10098000704700BF704700BF704700BF704700BF8F
:10099000704700BF704700BF704700BF704700BF7F
:1009A000704700BF704700BF704700BF704700BF6F
:1009B000704700BF704700BF704700BF704700BF5F
:1009C000704700BF704700BF704700BF704700BF4F
:1009D000704700BF704700BF704700BF704700BF3F
:1009E000704700BF704700BF704700BF704700BF2F
:1009F000704700BF704700BF704700BF704700BF1F
:100A0000704700BF704700BF704700BF704700BF0E
:100A1000704700BF704700BF704700BF704700BFFE
:100A2000704700BF704700BF704700BF704700BFEE
:100A3000704700BF704700BF704700BFE2B141EA96
:100A4000000313F0030F07D1032A05D951F8043B23
:100A500040F8043B043AF1E7DB0707D4012A05D943
:100A600031F8023B20F8023B023AE7E711F8013B7C
:100A700000F8013B013AE1E7704700BF884201D02E
:100A800002B1DBE7704700BF10B50C4C24B913E08E
:100A900070B9A3688BB10C34216860680029F7D065
:100AA0008142A268F7D0002AF5D0FFF7C7FFF2E72E
:100AB000A268002AEFD0F8E710BD10BD00000000CA
:100AC000104A114BD21A0AD0002013F0030107D1AB
:100AD000032A05D9043A43F8041B002AF5D17047CC
:100AE00013F0010107D1012A05D0023A23F8021BB5
:100AF000002AEAD1F3E7013A03F8010B002AE4D116
:100B0000EDE700BF6004FF1F3404FF1F7E4A7F4BE8
:100B100041F2440170B47E4C545041F23C0083B029
:100B2000115841F0005111501A69D00507D41A69C3
:100B300022F470521A611A6942F480721A61734B7E
:100B4000714C1A6922F400721A615A69D10744BFC4
:100B50001A681A6041F23C006E4B22586E4922F02E
:100B6000005222501A7802F0F0021A701A7802F03D
:100B70005F02002542F080021A709D704B7803F0EE
:100B8000C30343F024034B708A79634B9207FBD570
:100B90005A7802F0FE025A701A4691795E4BCE07DF
:100BA000FBD41A7A02F0D00242F002021A725A788A
:100BB00002F0FE025A701A7802F0FC0242F00202C1
:100BC0001A709A79D507FCD44F4B544C41F2040269
:100BD00041F23000995821F001019950195841F023
:100BE00004011950995841F0020199500194019B58
:100BF0005A1E0192002BFAD1494B0122C3F8302131
:100C00001A6B22F000421A63D3F8A02042F48052FB
:100C1000C3F8A020D3F8A02022F0030242F0010282
:100C2000C3F8A020D3F8A02022F48032C3F8A0207B
:100C30001A6B22F080421A63D3F8A020002AFBDA54
:100C400035490B7803F0C7030B700B7B03F0FC03F3
:100C50000B734B7803F0FD034B700B7803F03B03F1
:100C600043F080030B708B792B4A03F01C03082B95
:100C7000F9D1537903F0BF0353719179264B8C0658
:100C8000FBD401221A715A7902F0E00242F00E02FE
:100C90005A711A7942F040021A7199791E4A48062F
:100CA000FBD5537943F040035371137C03F0EF03FA
:100CB0001374937CD906FCD417498A79164B920693
:100CC000FBD51A7802F03F021A701A469379C3F3E3
:100CD0008103032BFAD10C4B124D1348134C41F2F4
:100CE000440241F204019D505A5841F2640522F435
:100CF000403200265A505E511A6822F440221A608F
:100D0000046003B070BC70470070044000D0034022
:100D100000002602005006400040064020A10700C7
:100D200000200A40000025125004FF1F000E270774
:100D300030B4444A444C454B41F2440182B040F245
:100D4000DC500190545041F23C00115841F00051E8
:100D500011501A69D50507D41A6922F470521A6124
:100D60001A6942F480721A61384B1A6922F40072CF
:100D70001A615A69D40748BF1A68324C48BF1A60D2
:100D800041F23C00324B2158324A21F000512150AF
:100D9000197801F0F00119701978002501F05F0150
:100DA00019709D70537803F0C30343F0240353700C
:100DB000937928499807FBD50B7803F0C7030B708C
:100DC0000B7B03F0FC030B73019B5A1E0192002B5B
:100DD000FAD1204A137803F03B0343F080031370E9
:100DE00093799B07FCD51B4A93791A4903F01C039E
:100DF000082BF9D14878134B174A41F2440440F0CC
:100E000002004FF0804548701D5141F2040041F24C
:100E100064041958002521F4403119501D511968F6
:100E200021F440211960537803F09F0343F04003FD
:100E30005370D378042BFCD1084B094A1A6002B0D6
:100E400030BC7047007004400000260200D0034010
:100E5000005006400040064000E007405004FF1FDD
:100E600000093D00354A364B41F2440130B4354C5F
:100E7000545041F23C00115841F0005111501A6990
:100E8000D00507D41A6922F470521A611A6942F423
:100E900080721A612A4B294C1A6922F400721A6175
:100EA0005A69D10744BF1A681A6041F23C00264BC8
:100EB000225822F0005222505A7842F001025A7011
:100EC0001A7842F0030219461A708A791E4BD2072B
:100ED000FBD51A7802F03F0242F040021A701A461F
:100EE00093791949C3F38103012BF9D14878134B46
:100EF000164A41F2440440F002004FF000454870A9
:100F00001D5141F2040041F264041958002521F4F6
:100F1000403119501D51196821F44021196053784E
:100F200003F09F0343F040035370D378042BFCD1AC
:100F3000074B084A1A6030BC704700BF007004407D
:100F400000D00340000026020040064000E00740B9
:100F50005004FF1F20A1070010B40E490E4B0F488C
:100F600088600F4A4CF220544DF628104FF4E97176
:100F7000DC81D881198093781B0703D5937843F0DF
:100F800008039370074BAA221A705DF8044BFFF711
:100F9000BDBD00BF00ED00E00020054000000000E6
:100FA00000D0074000E0074008B5FFF7D5FFFFF786
:100FB00087FDFFF769FD0948094A0A4D41F23801EA
:100FC0000724435843F4F053435055600023146002
:100FD00083F3118862B600F0B5F8FEE700700440B4
:100FE00010E000E0BFD4010080F31188704700BF1B
:100FF00009480A4A41F2380130B44358084D0724E1
:1010000043F4F053435055600023146083F3118878
:1010100062B630BC704700BF0070044010E000E0D2
:10102000BFD40100704700BF704700BF0120704768
:1010300008B500F05FF9162303604FF0FF3008BDDC
:1010400008B500F057F916230360FEE770B5161EC9
:1010500007DD0C468D19AFF3008004F8010BAC429C
:10106000F9D1304670BD00BF70B5161E07DD0C46C5
:101070008D1914F8010BAFF30080AC42F9D1304662
:1010800070BD00BF0A4A08B5136873B118446946B9
:10109000884202D81060184608BD00F02BF90C23D6
:1010A00003604FF0FF33184608BD024B1360EDE7B5
:1010B0005804FF1F000000204FF0FF30704700BFB2
:1010C0004FF400534B600020704700BF0120704771
:1010D000002070470EB44FF0FF3003B0704700BFE0
:1010E00008B500F007F90A2303604FF0FF3008BD90
:1010F00008B500F0FFF8022303604FF0FF3008BD91
:101100004FF0FF30704700BF4FF400534B6000209A
:10111000704700BF08B500F0EDF81F2303604FF0E3
:10112000FF3008BD08B500F0E5F80B2303604FF071
:10113000FF3008BD08B500F0DDF80C2303604FF068
:10114000FF3008BD6248634A634C644D4FF48071C0
:101150002DE9884841615069614B624F40F02000A1
:101160005061506840F02000506021645A6942F498
:1011700080325A615A6842F480325A6061645A6916
:1011800042F400325A615A6842F400325A60FFF762
:10119000F7F941F230015448544A435804F5AC245D
:1011A00043F0010343500026012326602360537857
:1011B00043F00203537029686960A960264605F16F
:1011C0000C09AB46A84641F2883A06E02B68A968AC
:1011D0005B1A0A2B10D8DBF804102B685B1A5345F6
:1011E000F4D9DBF80030CBF80430FFF725F92B6891
:1011F000A9685B1A0A2BEED93D4BD8F80010C8F845
:101200000C3008220023C8F8081088F81220A8F82B
:1012100010306368C3F30723002BFAD0F368A7FBF1
:10122000031203EBD213EB746368C3F30723002BA1
:10123000FAD0F368A7FB031203EBD2132B75636894
:10124000C3F30723002BFAD0F368A7FB031203EBC9
:10125000D2136B756368C3F30723002BFAD0F368CE
:10126000A7FB031203EBD213AB756368C3F3072329
:10127000002BFAD0F368A7FB031203EBD213EB7534
:101280006368C3F30723002BFAD0F368A7FB0312AC
:1012900003EBD2132B766368C3F30723002BFAD03A
:1012A000F368A7FB031203EBD2136B766368C3F3F7
:1012B0000723002BFAD0F368A7FB031203EBD2132A
:1012C000AB7699E80F00FFF753FA69687BE700BF38
:1012D00000B0044080F00F4000A004403404FF1F21
:1012E00040F00F40818080800070044000C00740C3
:1012F00023010080014B1868704700BF3004FF1FB6
:08130000430000000800FF1F7C
:10130800FEE700BFFEE700BFFEE700BFFEE700BF45
:10131800FEE700BF704700BF704700BF704700BFBF
:08132800704700BF704700BFD1
:101330005C04FF1F0000000000000000F402FF1F1B
:101340005C03FF1FC403FF1F00000000000000003B
:10135000000000000000000000000000000000008D
:10136000000000000000000000000000001300006A
:10137000000000000000000000000000000000006D
:10138000000000000000000000000000000000005D
:10139000000000000000000000000000000000004D
:1013A000000000000000000000000000000000003D
:1013B000000000000000000000000000000000002D
:1013C000000000000000000000000000000000001D
:1013D000000000000000000000000000000000000D
:1013E00001000000000000000E33CDAB34126DE6AA
:1013F000ECDE05000B000000000000000000000013
:1014000000000000000000000000000000000000DC
:1014100000000000000000000000000000000000CC
:1014200000000000000000000000000000000000BC
:1014300000000000000000000000000000000000AC
:041760000800FF1F5F
:0400000300000FA941
:00000001FF
